{
  "_format": "hh-sol-artifact-1",
  "contractName": "Dappazon",
  "sourceName": "contracts/Dappazon.sol",
  "abi": [
    {
      "inputs": [],
      "stateMutability": "nonpayable",
      "type": "constructor"
    },
    {
      "anonymous": false,
      "inputs": [
        {
          "indexed": false,
          "internalType": "string",
          "name": "name",
          "type": "string"
        },
        {
          "indexed": false,
          "internalType": "uint256",
          "name": "cost",
          "type": "uint256"
        },
        {
          "indexed": false,
          "internalType": "uint256",
          "name": "quantity",
          "type": "uint256"
        }
      ],
      "name": "Add",
      "type": "event"
    },
    {
      "anonymous": false,
      "inputs": [
        {
          "indexed": false,
          "internalType": "address",
          "name": "buyer",
          "type": "address"
        },
        {
          "indexed": false,
          "internalType": "uint256",
          "name": "orderID",
          "type": "uint256"
        },
        {
          "indexed": false,
          "internalType": "uint256",
          "name": "itemID",
          "type": "uint256"
        }
      ],
      "name": "Buy",
      "type": "event"
    },
    {
      "inputs": [
        {
          "internalType": "uint256",
          "name": "_id",
          "type": "uint256"
        },
        {
          "internalType": "string",
          "name": "_name",
          "type": "string"
        },
        {
          "internalType": "string",
          "name": "_category",
          "type": "string"
        },
        {
          "internalType": "string",
          "name": "_image",
          "type": "string"
        },
        {
          "internalType": "uint256",
          "name": "_cost",
          "type": "uint256"
        },
        {
          "internalType": "uint256",
          "name": "_rating",
          "type": "uint256"
        },
        {
          "internalType": "uint256",
          "name": "_stock",
          "type": "uint256"
        }
      ],
      "name": "add",
      "outputs": [],
      "stateMutability": "nonpayable",
      "type": "function"
    },
    {
      "inputs": [
        {
          "internalType": "uint256",
          "name": "_id",
          "type": "uint256"
        }
      ],
      "name": "buy",
      "outputs": [],
      "stateMutability": "payable",
      "type": "function"
    },
    {
      "inputs": [
        {
          "internalType": "uint256",
          "name": "",
          "type": "uint256"
        }
      ],
      "name": "items",
      "outputs": [
        {
          "internalType": "uint256",
          "name": "id",
          "type": "uint256"
        },
        {
          "internalType": "string",
          "name": "name",
          "type": "string"
        },
        {
          "internalType": "string",
          "name": "category",
          "type": "string"
        },
        {
          "internalType": "string",
          "name": "image",
          "type": "string"
        },
        {
          "internalType": "uint256",
          "name": "cost",
          "type": "uint256"
        },
        {
          "internalType": "uint256",
          "name": "rating",
          "type": "uint256"
        },
        {
          "internalType": "uint256",
          "name": "stock",
          "type": "uint256"
        }
      ],
      "stateMutability": "view",
      "type": "function"
    },
    {
      "inputs": [
        {
          "internalType": "address",
          "name": "",
          "type": "address"
        }
      ],
      "name": "orderCount",
      "outputs": [
        {
          "internalType": "uint256",
          "name": "",
          "type": "uint256"
        }
      ],
      "stateMutability": "view",
      "type": "function"
    },
    {
      "inputs": [
        {
          "internalType": "address",
          "name": "",
          "type": "address"
        },
        {
          "internalType": "uint256",
          "name": "",
          "type": "uint256"
        }
      ],
      "name": "orders",
      "outputs": [
        {
          "internalType": "uint256",
          "name": "time",
          "type": "uint256"
        },
        {
          "components": [
            {
              "internalType": "uint256",
              "name": "id",
              "type": "uint256"
            },
            {
              "internalType": "string",
              "name": "name",
              "type": "string"
            },
            {
              "internalType": "string",
              "name": "category",
              "type": "string"
            },
            {
              "internalType": "string",
              "name": "image",
              "type": "string"
            },
            {
              "internalType": "uint256",
              "name": "cost",
              "type": "uint256"
            },
            {
              "internalType": "uint256",
              "name": "rating",
              "type": "uint256"
            },
            {
              "internalType": "uint256",
              "name": "stock",
              "type": "uint256"
            }
          ],
          "internalType": "struct Dappazon.Item",
          "name": "item",
          "type": "tuple"
        }
      ],
      "stateMutability": "view",
      "type": "function"
    },
    {
      "inputs": [],
      "name": "owner",
      "outputs": [
        {
          "internalType": "address",
          "name": "",
          "type": "address"
        }
      ],
      "stateMutability": "view",
      "type": "function"
    },
    {
      "inputs": [],
      "name": "withdraw",
      "outputs": [],
      "stateMutability": "nonpayable",
      "type": "function"
    }
  ],
  "bytecode": "0x608060405234801561001057600080fd5b50336000806101000a81548173ffffffffffffffffffffffffffffffffffffffff021916908373ffffffffffffffffffffffffffffffffffffffff160217905550611960806100606000396000f3fe6080604052600436106100705760003560e01c8063793b8c6d1161004e578063793b8c6d146100f25780638da5cb5b14610130578063bfb231d21461015b578063d96a094a1461019e57610070565b806323b9cabc146100755780633ccfd60b1461009e578063713d856b146100b5575b600080fd5b34801561008157600080fd5b5061009c60048036038101906100979190610ee9565b6101ba565b005b3480156100aa57600080fd5b506100b3610345565b005b3480156100c157600080fd5b506100dc60048036038101906100d7919061103d565b6104a3565b6040516100e99190611079565b60405180910390f35b3480156100fe57600080fd5b5061011960048036038101906101149190611094565b6104bb565b60405161012792919061120c565b60405180910390f35b34801561013c57600080fd5b506101456106d4565b604051610152919061124b565b60405180910390f35b34801561016757600080fd5b50610182600480360381019061017d9190611266565b6106f8565b60405161019597969594939291906112dd565b60405180910390f35b6101b860048036038101906101b39190611266565b6108d2565b005b60008054906101000a900473ffffffffffffffffffffffffffffffffffffffff1673ffffffffffffffffffffffffffffffffffffffff163373ffffffffffffffffffffffffffffffffffffffff1614610248576040517f08c379a000000000000000000000000000000000000000000000000000000000815260040161023f906113d3565b60405180910390fd5b60006040518060e0016040528089815260200188815260200187815260200186815260200185815260200184815260200183815250905080600160008a81526020019081526020016000206000820151816000015560208201518160010190816102b291906115ff565b5060408201518160020190816102c891906115ff565b5060608201518160030190816102de91906115ff565b506080820151816004015560a0820151816005015560c082015181600601559050507ff8aa7cd5d797416490f5f0f5b9cf0471b1da9e3929f67141168fd00a2286f963878584604051610333939291906116d1565b60405180910390a15050505050505050565b60008054906101000a900473ffffffffffffffffffffffffffffffffffffffff1673ffffffffffffffffffffffffffffffffffffffff163373ffffffffffffffffffffffffffffffffffffffff16146103d3576040517f08c379a00000000000000000000000000000000000000000000000000000000081526004016103ca906113d3565b60405180910390fd5b60008060009054906101000a900473ffffffffffffffffffffffffffffffffffffffff1673ffffffffffffffffffffffffffffffffffffffff164760405161041a90611740565b60006040518083038185875af1925050503d8060008114610457576040519150601f19603f3d011682016040523d82523d6000602084013e61045c565b606091505b50509050806104a0576040517f08c379a0000000000000000000000000000000000000000000000000000000008152600401610497906117a1565b60405180910390fd5b50565b60026020528060005260406000206000915090505481565b600360205281600052604060002060205280600052604060002060009150915050806000015490806001016040518060e00160405290816000820154815260200160018201805461050b90611422565b80601f016020809104026020016040519081016040528092919081815260200182805461053790611422565b80156105845780601f1061055957610100808354040283529160200191610584565b820191906000526020600020905b81548152906001019060200180831161056757829003601f168201915b5050505050815260200160028201805461059d90611422565b80601f01602080910402602001604051908101604052809291908181526020018280546105c990611422565b80156106165780601f106105eb57610100808354040283529160200191610616565b820191906000526020600020905b8154815290600101906020018083116105f957829003601f168201915b5050505050815260200160038201805461062f90611422565b80601f016020809104026020016040519081016040528092919081815260200182805461065b90611422565b80156106a85780601f1061067d576101008083540402835291602001916106a8565b820191906000526020600020905b81548152906001019060200180831161068b57829003601f168201915b505050505081526020016004820154815260200160058201548152602001600682015481525050905082565b60008054906101000a900473ffffffffffffffffffffffffffffffffffffffff1681565b600160205280600052604060002060009150905080600001549080600101805461072190611422565b80601f016020809104026020016040519081016040528092919081815260200182805461074d90611422565b801561079a5780601f1061076f5761010080835404028352916020019161079a565b820191906000526020600020905b81548152906001019060200180831161077d57829003601f168201915b5050505050908060020180546107af90611422565b80601f01602080910402602001604051908101604052809291908181526020018280546107db90611422565b80156108285780601f106107fd57610100808354040283529160200191610828565b820191906000526020600020905b81548152906001019060200180831161080b57829003601f168201915b50505050509080600301805461083d90611422565b80601f016020809104026020016040519081016040528092919081815260200182805461086990611422565b80156108b65780601f1061088b576101008083540402835291602001916108b6565b820191906000526020600020905b81548152906001019060200180831161089957829003601f168201915b5050505050908060040154908060050154908060060154905087565b600060016000838152602001908152602001600020905060008160060154116108fa57600080fd5b8060040154341015610941576040517f08c379a000000000000000000000000000000000000000000000000000000000815260040161093890611833565b60405180910390fd5b60006040518060400160405280428152602001836040518060e00160405290816000820154815260200160018201805461097a90611422565b80601f01602080910402602001604051908101604052809291908181526020018280546109a690611422565b80156109f35780601f106109c8576101008083540402835291602001916109f3565b820191906000526020600020905b8154815290600101906020018083116109d657829003601f168201915b50505050508152602001600282018054610a0c90611422565b80601f0160208091040260200160405190810160405280929190818152602001828054610a3890611422565b8015610a855780601f10610a5a57610100808354040283529160200191610a85565b820191906000526020600020905b815481529060010190602001808311610a6857829003601f168201915b50505050508152602001600382018054610a9e90611422565b80601f0160208091040260200160405190810160405280929190818152602001828054610aca90611422565b8015610b175780601f10610aec57610100808354040283529160200191610b17565b820191906000526020600020905b815481529060010190602001808311610afa57829003601f168201915b5050505050815260200160048201548152602001600582015481526020016006820154815250508152509050600260003373ffffffffffffffffffffffffffffffffffffffff1673ffffffffffffffffffffffffffffffffffffffff1681526020019081526020016000206000815480929190610b9390611882565b919050555080600360003373ffffffffffffffffffffffffffffffffffffffff1673ffffffffffffffffffffffffffffffffffffffff1681526020019081526020016000206000600260003373ffffffffffffffffffffffffffffffffffffffff1673ffffffffffffffffffffffffffffffffffffffff16815260200190815260200160002054815260200190815260200160002060008201518160000155602082015181600101600082015181600001556020820151816001019081610c5a91906115ff565b506040820151816002019081610c7091906115ff565b506060820151816003019081610c8691906115ff565b506080820151816004015560a0820151816005015560c082015181600601555050905050600160008481526020019081526020016000206006016000815480929190610cd1906118ca565b91905055507f1cbc5ab135991bd2b6a4b034a04aa2aa086dac1371cb9b16b8b5e2ed6b036bed33600260003373ffffffffffffffffffffffffffffffffffffffff1673ffffffffffffffffffffffffffffffffffffffff168152602001908152602001600020548460000154604051610d4c939291906118f3565b60405180910390a1505050565b6000604051905090565b600080fd5b600080fd5b6000819050919050565b610d8081610d6d565b8114610d8b57600080fd5b50565b600081359050610d9d81610d77565b92915050565b600080fd5b600080fd5b6000601f19601f8301169050919050565b7f4e487b7100000000000000000000000000000000000000000000000000000000600052604160045260246000fd5b610df682610dad565b810181811067ffffffffffffffff82111715610e1557610e14610dbe565b5b80604052505050565b6000610e28610d59565b9050610e348282610ded565b919050565b600067ffffffffffffffff821115610e5457610e53610dbe565b5b610e5d82610dad565b9050602081019050919050565b82818337600083830152505050565b6000610e8c610e8784610e39565b610e1e565b905082815260208101848484011115610ea857610ea7610da8565b5b610eb3848285610e6a565b509392505050565b600082601f830112610ed057610ecf610da3565b5b8135610ee0848260208601610e79565b91505092915050565b600080600080600080600060e0888a031215610f0857610f07610d63565b5b6000610f168a828b01610d8e565b975050602088013567ffffffffffffffff811115610f3757610f36610d68565b5b610f438a828b01610ebb565b965050604088013567ffffffffffffffff811115610f6457610f63610d68565b5b610f708a828b01610ebb565b955050606088013567ffffffffffffffff811115610f9157610f90610d68565b5b610f9d8a828b01610ebb565b9450506080610fae8a828b01610d8e565b93505060a0610fbf8a828b01610d8e565b92505060c0610fd08a828b01610d8e565b91505092959891949750929550565b600073ffffffffffffffffffffffffffffffffffffffff82169050919050565b600061100a82610fdf565b9050919050565b61101a81610fff565b811461102557600080fd5b50565b60008135905061103781611011565b92915050565b60006020828403121561105357611052610d63565b5b600061106184828501611028565b91505092915050565b61107381610d6d565b82525050565b600060208201905061108e600083018461106a565b92915050565b600080604083850312156110ab576110aa610d63565b5b60006110b985828601611028565b92505060206110ca85828601610d8e565b9150509250929050565b6110dd81610d6d565b82525050565b600081519050919050565b600082825260208201905092915050565b60005b8381101561111d578082015181840152602081019050611102565b60008484015250505050565b6000611134826110e3565b61113e81856110ee565b935061114e8185602086016110ff565b61115781610dad565b840191505092915050565b600060e08301600083015161117a60008601826110d4565b50602083015184820360208601526111928282611129565b915050604083015184820360408601526111ac8282611129565b915050606083015184820360608601526111c68282611129565b91505060808301516111db60808601826110d4565b5060a08301516111ee60a08601826110d4565b5060c083015161120160c08601826110d4565b508091505092915050565b6000604082019050611221600083018561106a565b81810360208301526112338184611162565b90509392505050565b61124581610fff565b82525050565b6000602082019050611260600083018461123c565b92915050565b60006020828403121561127c5761127b610d63565b5b600061128a84828501610d8e565b91505092915050565b600082825260208201905092915050565b60006112af826110e3565b6112b98185611293565b93506112c98185602086016110ff565b6112d281610dad565b840191505092915050565b600060e0820190506112f2600083018a61106a565b818103602083015261130481896112a4565b9050818103604083015261131881886112a4565b9050818103606083015261132c81876112a4565b905061133b608083018661106a565b61134860a083018561106a565b61135560c083018461106a565b98975050505050505050565b7f4f6e6c79206f776e65722063616e2063616c6c20746869732066756e6374696f60008201527f6e00000000000000000000000000000000000000000000000000000000000000602082015250565b60006113bd602183611293565b91506113c882611361565b604082019050919050565b600060208201905081810360008301526113ec816113b0565b9050919050565b7f4e487b7100000000000000000000000000000000000000000000000000000000600052602260045260246000fd5b6000600282049050600182168061143a57607f821691505b60208210810361144d5761144c6113f3565b5b50919050565b60008190508160005260206000209050919050565b60006020601f8301049050919050565b600082821b905092915050565b6000600883026114b57fffffffffffffffffffffffffffffffffffffffffffffffffffffffffffffffff82611478565b6114bf8683611478565b95508019841693508086168417925050509392505050565b6000819050919050565b60006114fc6114f76114f284610d6d565b6114d7565b610d6d565b9050919050565b6000819050919050565b611516836114e1565b61152a61152282611503565b848454611485565b825550505050565b600090565b61153f611532565b61154a81848461150d565b505050565b5b8181101561156e57611563600082611537565b600181019050611550565b5050565b601f8211156115b35761158481611453565b61158d84611468565b8101602085101561159c578190505b6115b06115a885611468565b83018261154f565b50505b505050565b600082821c905092915050565b60006115d6600019846008026115b8565b1980831691505092915050565b60006115ef83836115c5565b9150826002028217905092915050565b611608826110e3565b67ffffffffffffffff81111561162157611620610dbe565b5b61162b8254611422565b611636828285611572565b600060209050601f8311600181146116695760008415611657578287015190505b61166185826115e3565b8655506116c9565b601f19841661167786611453565b60005b8281101561169f5784890151825560018201915060208501945060208101905061167a565b868310156116bc57848901516116b8601f8916826115c5565b8355505b6001600288020188555050505b505050505050565b600060608201905081810360008301526116eb81866112a4565b90506116fa602083018561106a565b611707604083018461106a565b949350505050565b600081905092915050565b50565b600061172a60008361170f565b91506117358261171a565b600082019050919050565b600061174b8261171d565b9150819050919050565b7f5472616e73616374696f6e20756e7375636365737366756c0000000000000000600082015250565b600061178b601883611293565b915061179682611755565b602082019050919050565b600060208201905081810360008301526117ba8161177e565b9050919050565b7f5472616e736665722074686520636f727265637420616d6f756e74206f66204560008201527f5448000000000000000000000000000000000000000000000000000000000000602082015250565b600061181d602283611293565b9150611828826117c1565b604082019050919050565b6000602082019050818103600083015261184c81611810565b9050919050565b7f4e487b7100000000000000000000000000000000000000000000000000000000600052601160045260246000fd5b600061188d82610d6d565b91507fffffffffffffffffffffffffffffffffffffffffffffffffffffffffffffffff82036118bf576118be611853565b5b600182019050919050565b60006118d582610d6d565b9150600082036118e8576118e7611853565b5b600182039050919050565b6000606082019050611908600083018661123c565b611915602083018561106a565b611922604083018461106a565b94935050505056fea2646970667358221220f7da5f9dc6dfc395228092f26c27931c7287cdb6a727ba3b156f112ae1a3f80564736f6c63430008110033",
  "linkReferences": {},
  "deployedLinkReferences": {}
}